:100000000C9446000C9465000C9465000C946500FB
:100010000C9465000C9465000C9465000C946500CC
:100020000C9465000C9465000C9465000C946500BC
:100030000C9465000C9465000C9465000C947F0290
:100040000C9465000C9465000C9465000C9465009C
:100050000C9465000C94BC020C9465000C94650033
:100060000C9465000C9465000C9465000C9465007C
:100070000C9465000C9465000C9465000C9465006C
:100080000C9465000C9465000C94650011241FBE4F
:10009000CFEFD0E1DEBFCDBF11E0A0E0B1E0E0ECFA
:1000A000F8E000E00BBF02C007900D92A630B10748
:1000B000D9F721E0A6E0B1E001C01D92AB30B20754
:1000C000E1F70E94E5030C945E040C940000809517
:1000D00027B3982F9295907F922B97BB91B3807FF7
:1000E000892B81BB089528B3962F9295907F9223F8
:1000F00098BB92B39623907F92BB6095682398B388
:10010000862F8295807F892B88BB82B3607F862B68
:1001100082BB0895A79A82B18C6082B9089595B385
:10012000282F2078922B95BB93B18C70892B83B9A3
:10013000089595B380959823907895BB93B18923C2
:100140008C7083B90895282F95B3AF9885B3909597
:1001500092239078892B85BB83B193B1937F93B918
:1001600093B1809582238C70892B83B908958FEF8A
:100170008ABBDF9A08956A3008F060E09BB39078FC
:100180009BBB9BB3829580778068892B862B8BBB2A
:100190000895CF93DF9300D0CDB7DEB7282F862FF9
:1001A000922F9E7F9A836AE00E943E049983682F73
:1001B000822F81600E94BB008FE697E10197F1F7E3
:1001C00000C0000069818A810E94BB008FE697E130
:1001D0000197F1F700C000000F900F90DF91CF91D1
:1001E0000895CF93C62F682F82E00E94C9006C2F1C
:1001F00080E0CF910C94C9001F93CF93DF93D82F49
:10020000C62F142F682F6295637083E00E94BB0095
:100210008FE697E10197F1F700C000006D2F6F7036
:1002200082E00E94BB008FE697E10197F1F700C0E2
:1002300000006C2F6295677081E00E94BB008FE622
:1002400097E10197F1F700C000006C2F6F7080E01C
:100250000E94BB008FE697E10197F1F700C0000014
:1002600010FF0CC08BB380788BBB8BB38F648BBBC0
:100270008FE697E10197F1F700C00000DF91CF9181
:100280001F91089584B3807884BB84B3886784BB4E
:10029000089560E070E040E050E080E090E0E8E049
:1002A000F0E025B3277825BB25B3DF01042E01C07C
:1002B000AA0F0A94EAF72A2B25BBAFE6B7E11197FC
:1002C000F1F700C0000023B330E02095309527708F
:1002D0003327062E02C0220F331F0A94E2F7822B27
:1002E000932BAFE6B7E11197F1F700C000004F5F25
:1002F0005F4F6D5F7F4F4430510599F60895E4E6F6
:10030000F0E08081807E80830895809163008F710A
:100310000895E2E6F0E08081886080838081877FB5
:10032000808380E00895CF93C82F809162008D7FF5
:100330008093620083B18F7083B983B19C2F907FCB
:10034000892B83B90E94890183B18F7083B993B1DE
:100350008C2F8295807F892B83B90E9489018AE640
:100360008A95F1F700C0C43030F48FE097E201972E
:10037000F1F700C00000CF910895E1E6F0E0808140
:100380008E60808382B1806F82B9E2E6F0E0808186
:10039000897F80832FE788E391E02150804090405F
:1003A000E1F700C0000083B18F7083B983B180632F
:1003B00083B90E9489018FE097E20197F1F700C0AD
:1003C00000000E9489018BE291E00197F1F700C0E3
:1003D00000000E9489019AE69A95F1F700C083B166
:1003E0008F7083B91D9A0E9489012AE62A95F1F738
:1003F00000C088E20E94930188E00E94930181E09E
:100400000E94930186E00E9493018CE00C9493017A
:1004100080580C949301982F862F923061F028F425
:10042000911107C080580C94930180539330D9F3F5
:1004300008958054F8CF8057F6CFCF93C82FE2E6C7
:10044000F0E080818260808383B18F7083B983B153
:100450009C2F907F892B83B90E94890183B18F7073
:1004600083B983B1C295C07FC82BC3B90E948901EB
:100470008AE68A95F1F700C0CF910895EF92FF9236
:100480000F931F93CF938C01C0E07801EC0EF11C09
:10049000C7FDFA94F7018081811106C0CF911F91A9
:1004A0000F91FF90EF900895C83019F480EC0E94EE
:1004B0009301F70180810E941D02CF5FE6CF83B7D1
:1004C0008E6083BF8AEF81BF87B7826087BF7894D1
:1004D000089517B88FED86B978940895369A0895DF
:1004E00024B185B190E0982F882788279370822BBC
:1004F0000895E1E6F0E080818E7F808308951F9269
:100500000F920FB60F9211240BB60F922F933F93B9
:100510004F935F936F937F938F939F93AF93BF930B
:10052000EF93FF938091080190910901009729F0C2
:100530000197909309018093080180910A0191E04D
:10054000980F90930A018A3F20F00E946E02109249
:100550000A01FF91EF91BF91AF919F918F917F9190
:100560006F915F914F913F912F910F900BBE0F9024
:100570000FBE0F901F9018951F920F920FB60F92FB
:1005800011240BB60F920F931F932F933F934F930A
:100590005F936F937F938F939F93AF93BF93EF93EB
:1005A000FF93CF93DF9300D000D000D0CDB7DEB75C
:1005B0000E9470028C01000F111F000F111FC80153
:1005C0006AE070E00E944A04262F6093060170934F
:1005D000070186E0E0E0F1E0DE01119601900D9266
:1005E0008A95E1F7C80164E670E00E944A04205D44
:1005F0008AE0689F201911242A83605D69838FED4A
:100600008C8380E90E949301CE0101960E943E02F4
:100610000F900F900F900F900F900F90DF91CF9150
:10062000FF91EF91BF91AF919F918F917F916F91CA
:100630005F914F913F912F911F910F910F900BBEA2
:100640000F900FBE0F901F9018958091740087FF38
:10065000FCCF08951092710080E28093700084E0D6
:10066000809374000895CF93DF93C82FD62F84EA28
:10067000809374000E94250380917100887F8830E8
:1006800059F080917100887F803131F08091710044
:10069000887FDF91CF910895CD0FC093730084E8D8
:1006A000809374000E94250380917100887F8831B7
:1006B00031F090917100987F81E0903451F780E0A3
:1006C000E8CF8093730084E8809374000E94250330
:1006D00090917100987F81E0983209F480E008954C
:1006E000811541F084EC809374000E942503809171
:1006F0007300089584E8F7CF84E9809374008091B3
:10070000740084FDFCCF089560E082EA0E94330308
:1007100082E00E94610380E20E94610384E20E9401
:10072000610382E00E9461030C947C03AF92BF924C
:10073000CF92DF92EF92FF920F931F93CF93DF93AD
:1007400060E082EA0E94330382E00E9461030E941B
:100750007C0361E082EA0E94330304E710E084EC4A
:10076000F82EF801F0820E942503C3E7D0E0B8809C
:10077000F801F0820E942503A88084E8F8018083B4
:100780000E942503C880D12CE12CF12C7601DD24B8
:10079000CC24DA28CB280E947C03C701B601DF9164
:1007A000CF911F910F91FF90EF90DF90CF90BF906E
:1007B000AF9008951092900083E089B988E18AB9DA
:1007C00008955D9BFECF8CB9089580E00E9467007C
:1007D0000E94B7000E945F020E947F010E94BD013B
:1007E00080E00E9493010E9479020E9469020E94A7
:1007F0008A000E9442010E942A030E948403C0E0F2
:100800009EEEE92E92E0F92E8091630084FF14C0E1
:10081000F0920901E0920801C1E00E9496038B0169
:100820009C01C13011F59927832F722F612F402F22
:10083000822F0E94FC00E8CF8091630088718115AF
:1008400031F0F0920901E0920801C2E0E6CF809118
:1008500063008F718111E1CF8091080190910901AE
:10086000892BD9F61BBAC0E0D8CFC11569F260E078
:10087000809106010E94F100C2E0C6CF992778E07E
:10088000880F991F961708F0961B881F7A95C9F74D
:1008900080950895AA1BBB1B51E107C0AA1FBB1F6F
:1008A000A617B70710F0A61BB70B881F991F5A95FC
:1008B000A9F780959095BC01CD010895F894FFCFDC
:0608C0002020202043006F
:00000001FF
